:020000040000FA
:1000000000008031362808007E1480318B1E0928BC
:100010000A2812280B1D0D280E2812288C31CB24FB
:10002000803131280B1F1528162831282100921DF8
:100030001A281B2826282000921D1F282028262841
:1000400033088A0032080A00803131282100911DCE
:100050002A282B2831282000911D2F2830283128CC
:1000600020287E10090020008031432883012200CF
:100070000C1621000C1224000C1225000C12260074
:100080000C16803133288731FF278031E500EA30B4
:100090008400203085000630FE000130FF008C31E6
:1000A0003424803120308400003085002230FE006E
:1000B0000030FF008C3134248031A03084000030C7
:1000C00085003430FE000030FF008C313424803154
:1000D0007E1020008E31832E8531E825803120006E
:1000E0004E08DF005F082100D8005803031D79285F
:1000F0007A2880282000350803197F28802887283F
:10010000210058082000DF005F08B5007629210093
:1001100058082000DF005F08B5008D3112258031BE
:1001200020004F082100D70020004E082100D600F3
:1001300020004D082100D50020004C082100D400EB
:10014000F4288D31122580312100540820004C0202
:10015000DF002100550820004D3BE000210056083B
:1001600020004E3BE1002100570820004F3BE200F9
:1001700062082100DC00200061082100DB00200073
:1001800060082100DA0020005F082100D90020006B
:1001900036080319CC28CD28E02821005C08031D6F
:1001A000DC285B08031DDC288830590213305A3BD9
:1001B000031CDB28DC28F4288C31FF2480317629CD
:1001C00021005C08031DF0285B08031DF0285A0875
:1001D000031DF02864305902031CEF28F028F4288E
:1001E00086319A26803176298531E82580312000B4
:1001F0004E084F04031DFD28FE28A1283608031DC4
:10020000022903290429762921005C08031D1329EA
:100210005B08031D1329D030590207305A3B031CD9
:100220001229132976298B31602380318D311225D3
:10023000803120004F082100D70020004E08210007
:10024000D60020004D082100D50020004C082100D8
:10025000D4006F298D3112258031210054082000EF
:100260004C02DF002100550820004D3BE00021003A
:10027000560820004E3BE1002100570820004F3B6C
:10028000E20062082100DC00200061082100DB00A0
:10029000200060082100DA0020005F082100D9005A
:1002A0005C08031D5E295B08031D5E29613059024D
:1002B000EA305A3B031C5D295E2964298B138C317B
:1002C000FF2480318B1776298B135A1D68296929E1
:1002D0006C2922008E166E2922008E128B17023096
:1002E00020003B06031D752976292A2908002000D5
:1002F0003E08C4004408C900380803198029812930
:10030000F92949083F39C4004408B700B80124005E
:10031000961216162B2A212A4908C4004408BB004D
:1003200023082100AB00200022082100AA002000A1
:1003300021082100A900200020082100A800212A6E
:100340004908C4004408E500212A49080319A929DD
:10035000AA29AE298B31B7238131212A8B316F2312
:100360008131212A8D319A258131212A4908C40001
:10037000C5014408C2004508C3008D31682581319C
:10038000212A4908C400C50100302605C600FF30F7
:100390002705C70044084604A60045084704A700EF
:1003A000212A4908C400C5014408C500C401FF3022
:1003B0002605C70000302705C80044084704A600EA
:1003C00045084804A700212A20303702031CE929E8
:1003D000EA29212A403037020318EF29F029212A7F
:1003E0004908C4003708943E86008701440881000C
:1003F000212A3708C400C5014508003A0319012A1B
:10040000E4294408003A03198B29013A0319212AE7
:10041000033A0319212A013A03198C29073A0319CF
:10042000A029013A0319A529033A0319B2291B3A55
:100430000319B629033A0319C129013A0319D1292D
:10044000E42920003708013E3F39C4004408B700C2
:10045000240096121616080000302100DB00003040
:10046000DA000030D9000030D80020003608031D23
:100470003A2A3B2A3C2AC52A85318F258231200021
:100480004E08DA005A082100DC005C03031D492AEB
:100490004A2A502A2000340803194F2A502A572A82
:1004A00021005C082000DA005A08B400C52A2100A7
:1004B0005C082000DA005A08B4008D311225823120
:1004C00020004F082100D70020004E082100D60050
:1004D00020004D082100D50020004C082100D40048
:1004E000A92A8D31122582312100540820004C02A6
:1004F000DA002100550820004D3BDB0021005608A2
:1005000020004E3BDC002100570820004F3BDD005F
:100510005D082100DB0020005C082100DA002000DB
:100520005B082100D90020005A082100D8005B0890
:10053000031DA52A5A08031DA52AE03058022E30B3
:10054000593B031CA42AA52AA92A8B316523823191
:10055000C52A85318F25823120004E084F04031DA6
:10056000B22AB32A712A21005B08031DC22A5A0845
:10057000031DC22AE83058020330593B031CC12A2C
:10058000C22AC52A8B316A23823108002000500814
:10059000043E86000130513D8700403FD400413F7A
:1005A000D500D435D50D5408500786005508513D67
:1005B0008700403FD600413FD7005608D800570873
:1005C000D900DA01DB015008003E86000130513DC0
:1005D00087005808810241315908813B41315A084E
:1005E000813B41315B08813B7D315208D400530887
:1005F000D500D601D7015008003E86000130513D9C
:1006000087005408810741315508813D4131560822
:10061000813D41315708813D5008043E860001303C
:10062000513D8700403FD400413FD500D435D50D22
:100630005408500786005508513D87005208C03FB6
:100640005308C13F5008043E86000130513D8700E9
:10065000403FD400413FD5005408013ED600003051
:10066000553DD7007F305605D80000305705D900DA
:100670005008043E86000130513D87005808C03FB5
:100680005908C13F5008003E86000130513D8700A7
:10069000403FD400413FD500423FD600433FD70002
:1006A0000730D736D60CD50CD40C890B512B5508F6
:1006B000D1005408D0000800B52B210031082000DB
:1006C000A500210030082000A4002408F6007608C8
:1006D000F800E42B2508F6007608F800E42B033038
:1006E000F6007608F800E42B0430F6007608F800EF
:1006F000E42B0230F6007608F800E42BF801E42B36
:100700006508F6007608F800E42B3C08F600760849
:10071000F800E42B8D3126258331F6007608F800A9
:10072000E42B2608F6007608F800E42B2708F600EC
:100730007608F800E42B20303702031CA02BA12BF5
:10074000B02B403037020318A62BA72BB02B37084D
:10075000943E860087010108F6007608F800E42B35
:10076000FF30F6007608F800E42B20003708F6008A
:10077000F7017708003A0319BE2B9B2B7608003A45
:1007800003196F2B013A0319742B033A0319792BC0
:10079000013A03197E2B073A0319802B013A0319FA
:1007A000852B033A03198A2B013A03195D2B0F3A63
:1007B00003196A2B153A03197E2B033A0319912B5F
:1007C000013A0319962B9B2B7808240091002000F6
:1007D0003708013E3F39F6007608B700240096122C
:1007E000161608008D311225833120004F08DF00D6
:1007F0004E08DE004D08DD004C08DC0021002F080B
:1008000020005F06031D142C21002E0820005E0628
:10081000031D142C21002D0820005D06031D142C3F
:1008200021002C0820005C060319172C182C752CAD
:10083000EA30D0002030D10001308E310F268331D4
:1008400020004D08D3004C08D2008231C6228331EB
:1008500020005008E0005108E100E201E30100300F
:10086000CF000030CE000030CD008130CC006308D6
:10087000D3006208D2006108D1006008D0008F3137
:100880000D27833120004F08E3004E08E2004D0899
:10089000E1004C08E0006308031D542C01306202A3
:1008A000031C532C542C5C2C0030E3000030E2007D
:1008B000FF30E100FF30E0008B1361082100B10040
:1008C000200060082100B0008B1720005F08210085
:1008D000AF0020005E082100AE0020005D0821006E
:1008E000AD0020005C082100AC000800F501F60115
:1008F0008030F0070F30F13D1F307005F3000030FD
:100900007105F400730874040319872C882C8D2C4E
:10091000FF30F000FF30F100D82C7008203EF300CB
:100920000030713DF400103074020130031973027D
:10093000031C9B2C9C2C9D2C882C8B1323001513A3
:100940001512951615157108920075087007230089
:10095000910075087207F30073088600870101088B
:100960009300940155309600AA309600951400002B
:1009700000000130F5070030F63D7608803AF300BC
:1009800080307302031DC62C20307502031CC92C55
:10099000CA2CA52C2300951255309600AA3096003B
:1009A000951400000000230015118B17F001F101D0
:1009B00008008B31212384318B31242384312000A2
:1009C000CA004A08BE008B3151238431003A031912
:1009D000EA2CEB2CF12C01302000CA004A08C1009F
:1009E0001C2D02302000CA004A08C1001C2D8B318A
:1009F00056238431003A031DFE2CFF2C032D8C312D
:100A000074248431092D8C31812484318B312A2343
:100A100084312000C0012C2D8B314C238431003ACD
:100A20000319132D142D182D8C31672484312C2D8E
:100A30008C3140248431092D4108CA00CB014B0878
:100A4000003A0319242D2C2D4A08013A0319F72CDA
:100A5000033A03190C2D2C2D20004008CA004A0827
:100A6000C1008B3127238431080020005008043E48
:100A700086000130513D87000030C03FC13F500823
:100A8000003ED4000130513DD50054088600550881
:100A900087000030C03FC13FC23FC33FD801D901EA
:100AA00020005908D5005808D400D435D50D540875
:100AB000500786005508513D87005208C03F530833
:100AC000C13F5208D4005308D500D601D7015008C1
:100AD000003E86000130513D8700540881074131B6
:100AE0005508813D41315608813D41315708813DCE
:100AF0000130D8070030D93D5908803AD400803001
:100B00005402031D852D80305802031C882D892D29
:100B1000502D20005308D1005208D00008002000BA
:100B20000C1D932D942D972DCE01CF01E72D003074
:100B3000D5000030D4000030D3000030D2000030A7
:100B4000D9000030D8000030D7000030D6008B31FB
:100B5000F6238531C12D20000C19AF2DB02DB92DF4
:100B60000130D2070030D33D0030D43D0030D53DB8
:100B7000C12D0130D6070030D73D0030D83D0030C0
:100B8000D93D8B3143238531003A0319C82DC92D36
:100B9000AB2D8B3130238531200055085902031DC0
:100BA000DB2D54085802031DDB2D53085702031D8B
:100BB000DB2D52085602031CDE2DE02D0130E12D05
:100BC0000030D000D1015008CE005108CF000800FD
:100BD00020000C18EC2DED2DF02DCE01CF01402E74
:100BE0000030D5000030D4000030D3000030D200F7
:100BF0000030D9000030D8000030D7000030D600D7
:100C00008B31F62385311A2E20000C1C082E092E5C
:100C1000122E0130D2070030D33D0030D43D0030D9
:100C2000D53D1A2E0130D6070030D73D0030D83DD3
:100C30000030D93D8B3143238531003A0319212EF1
:100C4000222E042E8B313023853120005508590285
:100C5000031D342E54085802031D342E5308570226
:100C6000031D342E52085602031C372E392E013034
:100C70003A2E0030D000D1015008CE005108CF00EC
:100C8000080020003B08031D462E472E482E992EB3
:100C90008D31122586312100280820004C02DF000A
:100CA0002100290820004D3BE00021002A082000F7
:100CB0004E3BE10021002B0820004F3BE200620880
:100CC000031D6D2E6108031D6D2E6008031D6D2E22
:100CD0000A305F0203186D2E6E2E872E992E8C31EE
:100CE000FF24863115302000E0004B30DF00BE309D
:100CF000890B782EDF0B782EE00B782E00008631E2
:100D00009A268631972E8C31FF248631972E3B0808
:100D1000DF00E0016008003A03198F2E972E5F086C
:100D2000023A0319832E053A03196F2E972E2000DD
:100D3000BB0108002000360803199F2EA02EA12E0B
:100D4000ED2E8E19A42EA52ED52E8B31BE238631E5
:100D5000D52E0030D7000030D6000030D500FA3054
:100D6000D4008D311225863120004F08DB004E085B
:100D7000DA004D08D9004C08D8008631EE268631BD
:100D800020005708031DCF2E5608031DCF2E5508EF
:100D9000031DCF2E7D3054020318CF2ED02ED32E1C
:100DA00022000C12D52E22000C1620008E1DD92EEA
:100DB000DA2EA92E22000C168B31812386318D313B
:100DC000B62586318B317B23863122000E158E1697
:100DD00001302000DE005E08B60008002000570841
:100DE0005604550454040319F62EF72E302FDD0156
:100DF000DD0A052F0130D435D50DD60DD70D890B61
:100E0000FB2E0130DC005C08DD07D71F082F092FFF
:100E1000FA2E57085B02031D172F56085A02031DAE
:100E2000172F55085902031D172F54085802031C89
:100E30001A2F1B2F232F5408D8025508D93B5608C8
:100E4000DA3B5708DB3B0130D736D60CD50CD40C37
:100E5000890B242F0130DD02031D2F2F302F092F86
:100E60005B08D7005A08D6005908D5005808D400A6
:100E700008001F3020005005D30000305105D40079
:100E8000530854040319452F462F472F7F2F50082E
:100E9000203ED3000030513DD40000305402813058
:100EA00003195302031C552F562F572F7F2FD5019F
:100EB000D601200050085507CC005108563DCD0002
:100EC0008E31B026873120004C08D30055085207D8
:100ED000D400540886008701530881000130D507EB
:100EE0000030D63D5608803AD30080305302031DAF
:100EF0007B2F20305502031C7E2F7F2F592F080097
:100F00001F307405F70000307505F8007708780485
:100F100003198B2F8C2F8D2FC32F7408203EF700C1
:100F20000030753DF80000307802813003197702F7
:100F3000031C9B2F9C2F9D2FC32FF901FA017408CE
:100F40007907F00075087A3DF1008E315926873116
:100F50007008F70079087607F8007808860087019E
:100F6000770881000130F9070030FA3D7A08803AAD
:100F7000F70080307702031DBF2F20307902031C59
:100F8000C22FC32F9F2F08008030F0070F30F13D94
:100F90001F307005F20000307105F3007208730411
:100FA0000319D32FD42FD92FFF30F000FF30F100D9
:100FB000FE2F7008203EF2000030713DF30010302B
:100FC0007302013003197202031CE72FE82FE92F87
:100FD000D42F8B1370082300910071089200151311
:100FE0001516151555309600AA3096009514000078
:100FF0000000230015118B17F001F10108001434D3
:10100000FF3FFF3FFF3FFF3FFF3FFF3FFF3FFF3FF0
:10101000FF3FFF3FFF3FFF3FFF3FFF3FFF3FFF3FE0
:10102000FF3FFF3FFF3FFF3FFF3FFF3FFF3FFF3FD0
:10103000FF3FFF3FFF3FFF3FFF3FFF3FFF3FFF3FC0
:10163000FF3FFF3FFF3FFF3FFF3F0800240012082E
:10164000080020009111080024001108080024005F
:1016500015160800240096140800210091150800B2
:1016600020001810080016302100970008008C3167
:101670001D248B3108008B3137238B31080020006B
:10168000B901BA010800200011080139080024003E
:10169000140C890C013908002400140E890C01393E
:1016A00008002400140C890C013908002400150DD1
:1016B000150D01390800F0007008240091000800A1
:1016C00001308D31F0258B31080003308D31F0254C
:1016D0008B31080002308D31F0258B31080022005B
:1016E0000E160C162000BC01080020003F088B31AC
:1016F0005B238B31080022008C168B313F238B310A
:10170000080022000E160C162000BC010800200064
:101710004D08AD004C08AC00080020004D08AB009F
:101720004C08AA00080020004D08B3004C08B20085
:10173000080020004D08B1004C08B000080020004F
:10174000CC004C082400920008002000CC004C087B
:1017500024009300080020004D08A9004C08A800B0
:10176000080020004D08AF004C08AE000800220021
:101770000E120C122000BC01BC0A080022000E123E
:101780000C122000BC01BC0A08002000A601A70121
:101790008C318E248B3108008B311E238B31F0006D
:1017A00070082000BD0008008B3124238B31F0002D
:1017B00070082000BE0008007830210099009A01CE
:1017C0009801220096010800013021009D00E030C0
:1017D0009E009F019B019C01080020004D082100F4
:1017E000E20020004C082100E10008002000181051
:1017F0008C3128248B312000111018140800083077
:101800002000CC000C30CD008B31ED238B31080053
:1018100001302000A0070030A13D0030A23D003083
:10182000A33D08002400940116302000CC004C0891
:1018300024009504960195120800240094011630A6
:101840002000CC004C082400950496019512080055
:10185000210060082000CD0021005F082000CC009E
:101860008C31DC248C3108006400800101310130AE
:10187000FE020030FF3B7F087E04031D352C003440
:1018800020002C082D040319462C472C4C2C2D0825
:101890008A002C080A008C31080020002708F80074
:1018A0002608F700B430FD007D08F9008D31D225FF
:1018B0008C31080020002708F5002608F400B43019
:1018C000FB007B08F600873180278C310800200060
:1018D0003008310403196D2C6E2C732C31088A00EA
:1018E00030080A008C31080020002E082F0403194C
:1018F0007A2C7B2C802C2F088A002E080A008C3131
:1019000008002000280829040319872C882C8D2C16
:1019100029088A0028080A008C31080020002708BE
:10192000D1002608D000B430D7005708D200873144
:1019300039278C3108002400951A9F2CA02CA92C43
:10194000940116302000CC004C0824009504960128
:101950009516080020003A0839060319B02CB22C5D
:101960000130B32C0030F200F3017208F00073086C
:10197000F10008008B3147238C31003A031DC12C44
:10198000C22CC72C0130F00070082000B8002400E1
:101990009612161608000B1120006408950021000D
:1019A000610862040319D52CD62CDB2C62088A004E
:1019B00061080A008C3108002000181DE02CE12C81
:1019C000E82C18104D0897004C0896001814EC2CC1
:1019D0004D0897004C089600080020009901F0304F
:1019E000970060309600111017082100E0002000D9
:1019F00016082100DF0001302000980008002000B8
:101A00003608031D042D052D062D112D22000E1163
:101A10008E122000B6018B317B238C318B313B231E
:101A20008C3108008B1320002308D3002208D20039
:101A30002108D1002008D0008B175308CF0052088E
:101A4000CE005108CD005008CC0008008C31AA24EB
:101A50008D317008710403192E2D2F2D312DF501B4
:101A60003A2D20003908A03E860087010108F400C5
:101A70007408F5007508080021001508C0391438ED
:101A800095008330200095008330CE004E08E4009E
:101A90000B118B160330CC000030CD008B31ED23C1
:101AA0008D3108008C3112248D318E31DE268D313E
:101AB0008B31DC238D318B3133238D318B31E4231A
:101AC0008D318C31ED248D318D313C258D310800E7
:101AD000712D8C315A248D317F2D8C314D248D31D7
:101AE0007F2D20004308003A0319772D7F2D4208EF
:101AF000013A0319692D033A03196D2D7F2D080052
:101B0000EA302000D0002030D10001308E310F2685
:101B10008D3120004D08D3004C08D2008531352589
:101B20008D31200051082100B10020005008210013
:101B3000B00008008C31AA248D3170087104031D97
:101B4000A22DA32DAA2D20003908013E0739F4004B
:101B50007408B9008C31AA248D31700871040319FE
:101B6000B22DB32DB52D22008C1608008F314127E0
:101B70008D315C302000CC000330CD008B31B1239F
:101B80008D3177302000CC000130CD008B3199238E
:101B90008D31BA302000CC000C30CD008B31872342
:101BA0008D3108007808F1007708F0008731C427EC
:101BB0008D317108FC007008FB007B087C04031960
:101BC000E22DE32DE42DEF2D7808F1007708F000E9
:101BD0007908FA007A08F200843176248D31080001
:101BE0002000D7008B138E3130268D3120004C0819
:101BF0004D04031DFC2DFD2D0B2E5708D6003A0871
:101C0000A03E86008701560881003A08013E073948
:101C1000D6005608BA0022008C128B17080020004C
:101C2000CF004F08CE00CE0DCE0D21001D082000A4
:101C30004E0683394E0621009D001D140630890B87
:101C40001F2E003221009D149D18272E282E242E91
:101C50001C082000CD0021001B082000CC0008003B
:101C600020003908CE00CF01CE1BCF0301303A0748
:101C7000D000D1010318D10ABA1F3F2ED10307307B
:101C800020005005D20000305105D3004F08530604
:101C9000031D4C2E4E08520603194F2E512E0130B3
:101CA000522E0030D400D5015408CC005508CD0088
:101CB00008008030F0070F30F13D7008013EF2005F
:101CC0000030713DF30010307302013003197202CD
:101CD000031C6B2E6C2E712EFF30F000FF30F100D4
:101CE000822E7008230091007108920015131514BC
:101CF0000000000023001308F200F3017208F00056
:101D00007308F10008008D3152258E318B31FF238D
:101D10008E318B170B1702302100DE000430DD00FE
:101D2000BA30890B912EDD0B912EDE0B912E000027
:101D30008B31C5238E318D3180258E3186319A26A7
:101D40008E318331F2238E3180316C208E3182319D
:101D50002C228E31863141268E31A12E80313328BE
:101D600080302000CC070F30CD3D4C08013ECE0026
:101D700000304D3DCF0010304F02013003194E02AC
:101D8000031CC32EC42EC92EFF30CC00FF30CD0063
:101D9000DD2E4C082300910020004D082300920006
:101DA0001513151400000000230013082000CE00B6
:101DB000CF014E08CC004F08CD0008003030220083
:101DC0008C0010308E00073021008C000B308E000C
:101DD000343023008E0012308C0024008C018E01E0
:101DE00021009517203025008C008E013730260009
:101DF0008C003F308E003F3027008C003F308E003B
:101E000010303D00A00011303C00A10011303D0019
:101E1000A10010303C00A000080000302000D700D6
:101E20000030D6000030D5000030D4004C1C192FF3
:101E30001A2F222F5008D4075108D53D5208D63DFD
:101E40005308D73D0130D035D10DD20DD30D890BBC
:101E5000232F0130CF36CE0CCD0CCC0C890B2A2F82
:101E60004F084E044D044C04031D372F382F162FF6
:101E70005708CF005608CE005508CD005408CC00B6
:101E800008008C319B248F3148308B319F238F3158
:101E9000FE308B31A5238F31D9302000CC000430A7
:101EA000CD008B3193238F3100302000CC000030E7
:101EB000CD008B318D238F3175302000CC000B305D
:101EC000CD008B31B1238F31D4302000CC000B30CA
:101ED000CD008B3199238F31CC302000CC000B30DA
:101EE000CD008B3187238F311D302000CC000B308B
:101EF000CD008B31AB238F318B312D238F310800F7
:101F00005A005A00FF00FF00FF00FF00FF00FF0023
:101F1000FF00FF00FF00FF00FF00FF00FF00FF00C9
:101F2000FF005A00FF00FF00FF00FF00FF00FF005E
:101F3000FF00FF00FF00FF00FF00FF00FF005A004E
:101F4000FF3FFF3FFF3FFF3FFF3FFF3FFF3FFF3FA1
:101F5000FF3FFF3FFF3FFF3FFF3FFF3FFF3FFF3F91
:101F6000FF3FFF3FFF3FFF3FFF3FFF3FFF3FFF3F81
:101F7000FF3FFF3FFF3FFF3FFF3FFF3FFF3FFF3F71
:101F8000FF3FFF3FFF3FFF3FFF3FFF3FFF3FFF3F61
:101F9000FF3FFF3FFF3FFF3FFF3FFF3FFF3FFF3F51
:101FA000FF3FFF3FFF3FFF3FFF3FFF3FFF3FFF3F41
:101FB000FF3FFF3FFF3FFF3FFF3FFF3FFF3FFF3F31
:101FC000FF3FFF3FFF3FFF3FFF3FFF3FFF3FFF3F21
:101FD000FF3FFF3FFF3FFF3FFF3FFF3FFF3FFF3F11
:101FE000FF3FFF3FFF3FFF3FFF3FFF3FFF3FFF3F01
:101FF000FF3FFF3FFF3FFF3FFF3FFF3FFF3FFF3FF1
:020000040001F9
:04000E00E43FFF1EAE
:08000000FF3FFF3FFF3FFF3F00
:00000001FF
