:020000040000FA
:1000000000008131BE29FF3F7E14803120007F082F
:10001000CA00911D6D282400141D2C28941A1D2837
:100020007D08213E860087010108910001302000F3
:10003000C5004508FD0724001516941E2C287D08D0
:10004000213E860087010108910001302000C50093
:100050004508FD072400151614196D28941A3B282D
:100060002000A001A00A240011082000C5004508B6
:10007000E60024001516941E6D28200020080319A0
:100080004928240011082000C5004508FD00A001F2
:10009000622820307D0203185C282400110820000B
:1000A000C5007D08213E860087014508810001309A
:1000B000C5004508FD076228240011082000C5007E
:1000C0004508E6002400951F6B28951311082000B1
:1000D000C5004508E600240015162000921D792869
:1000E000240011082000C5004508E60092112400F4
:1000F000151620009111121DA72803100C1C0314C3
:10010000031C852820000C14872820000C100130C7
:10011000DC070030DD3D0030DE3D0030DF3D5C08B7
:10012000C5004508AA005C08C5005D08C6005E0859
:10013000C7005F08C8000830C836C70CC60CC50C1D
:10014000890B9C284508C9004908AB001211121FF1
:10015000EB282200131FC8280F302000C5004508D7
:10016000B0002A30C5004508F6000230C600460837
:10017000F700013084310C2480312000C700C80111
:100180004708E2004808E300853187258031E728E9
:10019000131BE9280F3020003006031DE92800302A
:1001A000F3000030F2000030F1003230F000833113
:1001B0004A2380312200131FE728B0302000C500F9
:1001C0004508A10022008E1485314425803120008D
:1001D0001213200012132700931C25290030F3006E
:1001E0000030F2000030F1000530F00083314A2386
:1001F000803120008C180C2922008E1320000C1056
:100200000030F3000030F2000030F1001430F00054
:1002100083314A23803122298C1C222922008E1707
:1002200001302000C5004508A8070030F300003069
:10023000F2000030F1001430F00083314A238031A5
:1002400020000C14270093100B10131D44290030BC
:10025000F3000030F2000030F1000530F00083318F
:100260004A23803120000C193B2922008E142000E3
:10027000260801383F290C1D42292608FE39C500F1
:100280004508A60027001311931E63290030F300D0
:100290000030F2000030F1000530F00083314A23D5
:1002A000803120008C1A5A2922008E142000250843
:1002B00002385E298C1E61292508FD39C5004508D4
:1002C000A50027009312961E82290030F30000300B
:1002D000F2000030F1000530F00083314A23803114
:1002E00020008D1A792922008E1420002608023859
:1002F0007D298D1E80292608FD39C5004508A600E8
:1003000027009612961FA1290030F3000030F2005A
:100310000030F1000530F00083314A2380312000A5
:100320008D1B982922008E142000250801389C2955
:100330008D1F9F292508FE39C5004508A500270007
:1003400096132000911FB0291608C5004508A30088
:100350001708C5004508A40097019601A90191134B
:10036000111CBA2922008E14200011100130C50082
:100370004508A9004A08FF007E1009008131C02904
:10038000533084008630850020308600003087009E
:10039000253087311C278131FD0158308400003021
:1003A00085001030873122278131A0308400003051
:1003B00085002030873122277E1020008131E029FE
:1003C0008431662481318631B12681318631DF2640
:1003D00081318631022681318431B424813120007B
:1003E000CD01CD0A02302100C00040082000CE001F
:1003F0002C308531CA2581312100C100C20141085C
:100400002000E000210042082000E1000030CE0082
:100410000030CD000330CC00E830CB008231E62242
:10042000813143302100C00040082000D10002305B
:100430002100C10041082000D20001308331AD23EA
:1004400081312100C200C30142082000E2002100E6
:1004500043082000E3000D0D0D0D01392100C000FF
:1004600020000D0E890C01392100C10020000C0E66
:10047000890C01392100C20020000C0C890C0139C3
:1004800021004205410540050319492A20000C14AA
:10049000732A2000E401E40A22008E1420000C19C3
:1004A000582A260801382100C00040082000A60074
:1004B0008C1A612A250802382100C000400820005B
:1004C000A5008D1B6A2A250801382100C0004008BC
:1004D0002000A5008D1A732A260802382100C000CA
:1004E00040082000A6002A30270091002A30920000
:1004F000A0309400A03095008B15C92A8B138B1166
:100500008431FC24813100302000CE000030CD0049
:100510000330CC00E830CB008231E62281318431D7
:10052000B424813100302000CE000030CD000030F6
:10053000CC00C830CB008231E6228131BF2A8B1338
:100540008B1122008E1300302000CE000030CD0031
:100550000030CC00C830CB008231E622813122004D
:100560008E1701302100C00040082000A8078B171B
:100570008B15C22A8B138B118431FC2481318B178C
:100580008B152000A201C62A22008E1020005C1CC0
:10059000D92A20002208123A03197E2A743A031934
:1005A0009F2AE03A0319C42A713A0319BA2AC62AC3
:1005B000C62A991DE42A22008E1401302100C000B1
:1005C00040082000A900C92A9915C92A0030200036
:1005D000D3000030D2000030D1000030D000003015
:1005E000D7000030D6000030D5000030D4000030F5
:1005F000D3000030D2000030D1000030D0005308CA
:10060000803ACF004E08803A4F02031D112B4D084F
:100610005202031D112B4C085102031D112B4B08D4
:100620005002031808000030D7000030D600003018
:10063000D5000030D400D71B2A2B5708031D412BAF
:100640005608031D412B5508031D412BA0305402B1
:100650000318412B0130D4070030D53D0030D63D82
:100660000030D73DD71B2A2B5708031D412B5608B6
:10067000031D412B5508031D412BA0305402031CC0
:100680002A2B0130D0070030D13D0030D23D003060
:10069000D33DFF2A0030F8000030F7000030F600AC
:1006A0000030F5000030FC000030FB000030FA00A4
:1006B0000030F9000030F8000030F7000030F6009C
:1006C0000030F5007808803AF4007308803A74022C
:1006D000031D742B72087702031D742B71087602B8
:1006E000031D742B70087502031808000030FC000D
:1006F0000030FB000030FA000030F900FC1B8D2BAD
:100700007C08031DA42B7B08031DA42B7A08031D62
:10071000A42BA03079020318A42B0130F907003074
:10072000FA3D0030FB3D0030FC3DFC1B8D2B7C086E
:10073000031DA42B7B08031DA42B7A08031DA42BE7
:10074000A0307902031C8D2B0130F5070030F63DF7
:100750000030F73D0030F83D622B2000D5005508F1
:10076000D300D4010530D335D40D890BB32B5308F6
:10077000803ED6000F30543DD7002130520203187E
:10078000C52B04305502031CC72BFF300800570847
:10079000CC005608CB0086319626833102302000EB
:1007A0005202031CF32B20005708CC005608CB0044
:1007B0005108860087010108D300D4015308CD00F9
:1007C0005408CE00CF01CF0A86312B268331013069
:1007D0002000D3005308D1070130D6070030D73DA1
:1007E0000130D202CE2B5708CC005608CB0051085E
:1007F000860087010108D300D4015308CD005408B6
:10080000CE00CF0186312B262300150C2000D3000B
:10081000D30C530C01390800FA007A08F800F901EA
:100820000530F835F90D890B112C7808803EFB0056
:100830000F30793DFC00213077020318232C04305F
:100840007A02031C252CFF3008007C08F1007B088D
:10085000F0008631C826843102307702031C4E2C0A
:100860007C08F1007B08F00076088600870101080B
:10087000F800F9017808F2007908F300F401F40AAD
:100880008631782684310130F8007808F607013087
:10089000FB070030FC3D0130F7022C2C7C08F100F6
:1008A0007B08F0007608860087010108F800F9014E
:1008B0007808F2007908F300F401863178262300E5
:1008C000150CF800F80C780C013908007A3021007A
:1008D00099001A1E692C22000E138E110E168E1608
:1008E0000E118E108E1321000C108C140C158C150B
:1008F0000C168C1623008C0124008C01210095130A
:10090000270091019201930121000D160D178D16FC
:100910008D1723008D0124008D012700940195017E
:10092000960122000E168E1621008E100E118E11C9
:100930000E128E120E138E1323008E010E1422003F
:100940000E128E16240094012630950016101712F0
:100950002E309200200091119211210092159115D4
:100960000B1712178B17080022008E13003020007F
:10097000CE000030CD000030CC001030CB008231F2
:10098000E622843122008E1200302000CE0000309A
:10099000CD000030CC000A30CB008231E622843119
:1009A00022000E1200302000CE000030CD000030BA
:1009B000CC000A30CB008231E622843122008E1531
:1009C00000302000CE000030CD000030CC000A30D6
:1009D000CB008231E622843122000E170030200045
:1009E000CE000030CD000030CC000630CB0082318C
:1009F000E62222008E17080022008E13003020000D
:100A0000CE000030CD000030CC000A30CB00823167
:100A1000E622843122000E1300302000CE00003088
:100A2000CD000030CC000A30CB008231E622843188
:100A300022008E1100302000CE000030CD000030AA
:100A4000CC000A30CB008231E622843122000E161F
:100A500000302000CE000030CD000030CC000A3045
:100A6000CB008231E622843122008E160030200035
:100A7000CE000030CD000030CC000A30CB008231F7
:100A8000E62222000E11080022008E130030F3002F
:100A90000030F2000030F1001030F00083314A23C2
:100AA000853122008E120030F3000030F200003059
:100AB000F1000A30F00083314A23853122000E1202
:100AC0000030F3000030F2000030F1000A30F00096
:100AD00083314A23853122008E150030F300003027
:100AE000F2000030F1000A30F00083314A238531F2
:100AF00022000E170030F3000030F2000030F10049
:100B00000630F00083314A2322008E1708002200AD
:100B10008E130030F3000030F2000030F1000A3094
:100B2000F00083314A23853122000E130030F30098
:100B30000030F2000030F1000A30F00083314A2327
:100B4000853122008E110030F3000030F2000030B9
:100B5000F1000A30F00083314A23853122000E165D
:100B60000030F3000030F2000030F1000A30F000F5
:100B700083314A23853122008E160030F300003085
:100B8000F2000030F1000A30F00083314A232200E5
:100B90000E1108002000D3004D08CF00D001053011
:100BA000CF35D00D890BD02D4F08803ED1000F30AE
:100BB000503DD20021304E020318E22D04304D0288
:100BC000031CFD2DFF3008005208CC005108CB005B
:100BD0008631F526853120004B08CF00530886006A
:100BE00087014F0881000130D1070030D23D01302C
:100BF000CF004F08D3070130CE024E08031DE42D6D
:100C00000030080021009110033020009C040130C6
:100C10009B001C1507303E009204023094009501A1
:100C2000911496011115970191151008F8390238A1
:100C3000900090171017911729009E171F08F03980
:100C400002389F0022309B0000309C0000309D0045
:100C500021001215080000308B1B01302000D0004D
:100C60008B134C082300920020004B0823009100B6
:100C700020004E082300940020004D08230093001C
:100C800020004F0C2300031C951203189516151312
:100C90001512151587310A278631200050080319CF
:100CA00008008B170800013401340034003400348C
:100CB0000034003400340034003466345534443495
:100CC000333422341134FA34EA34DA34CA34BA34DC
:100CD000FB34FC34FD34FE34013402340334043478
:100CE000053406340734083412343434AB34CD348C
:100CF00000308B1B0130F5008B137108230092002C
:100D0000700891007308940072089300740C031C1F
:100D100095120318951615131512151587311327FB
:100D200086317508031908008B17080000308B1BEB
:100D300001302000CD008B134C08230092002000CE
:100D40004B082300910015131516151587310A2736
:100D500086312300151120004D08031908008B1758
:100D600008002200971797121708F33904389700E4
:100D7000FC30970593171316131593129417141735
:100D80009314CF3094051408F839043894000800FF
:100D900000308B1B0130F2008B137108230092008E
:100DA0007008910015131516151587311327863114
:100DB000230015117208031908008B1708003F3033
:100DC00020009805303098049917191799161916AC
:100DD000FC30990591139701960121001114911788
:100DE00020001814E701E70A080020004C0823003F
:100DF000920020004B0823009100151315140000E9
:100E00000000230014082000CC0023001308200059
:100E1000CB000800230055309600AA3096009514A8
:100E2000000000000800230055309600AA3096000C
:100E30009514000000000800FE0012001E00FE0BCA
:100E40001D2F0034640080010131890B232F0034F1
:100E5000FF3FFF3FFF3FFF3FFF3FFF3FFF3FFF3FA2
:100E6000FF3FFF3FFF3FFF3FFF3FFF3FFF3FFF3F92
:100E7000FF3FFF3FFF3FFF3FFF3FFF3FFF3FFF3F82
:100E8000FF3FFF3FFF3FFF3FFF3FFF3FFF3FFF3F72
:101F4000AB00CD00FF3FFF3FFF3FFF3FFF3FFF3FA5
:101F5000FF3FFF3FFF3FFF3FFF3FFF3FFF3FFF3F91
:101F6000FF3FFF3FFF3FFF3FFF3FFF3FFF3FFF3F81
:101F7000FF3FFF3FFF3FFF3FFF3FFF3FFF3FFF3F71
:101F8000FF3FFF3FFF3FFF3FFF3FFF3FFF3FFF3F61
:101F9000FF3FFF3FFF3FFF3FFF3FFF3FFF3FFF3F51
:101FA000FF3FFF3FFF3FFF3FFF3FFF3FFF3FFF3F41
:101FB000FF3FFF3FFF3FFF3FFF3FFF3FFF3FFF3F31
:101FC000FF3FFF3FFF3FFF3FFF3FFF3FFF3FFF3F21
:101FD000FF3FFF3FFF3FFF3FFF3FFF3FFF3FFF3F11
:101FE000FF3FFF3FFF3FFF3FFF3FFF3FFF3FFF3F01
:101FF000FF3FFF3FFF3FFF3FFF3FFF3FFF3FFF3FF1
:020000040001F9
:04000E00E40FFF3FBD
:08000000FF3FFF3FFF3FFF3F00
:00000001FF
